:020000040800F2
:10000000001F0020911B00080D6D00087D1B0008DB
:100010007D1B00087D1B00087D1B00080000000000
:10002000000000000000000000000000951C000817
:100030007D1B000800000000611C0008A94C00089E
:100040003D1E00083D1E00083D1E00083D1E000824
:100050003D1E00083D1E00083D1E00083D1E000814
:100060003D1E00083D1E00083D1E00083D1E000804
:100070003D1E00083D1E00083D1E00083D1E0008F4
:100080003D1E00083D1E00083D1E00083D1E0008E4
:100090003D1E00083D1E00083D1E00083D1E0008D4
:1000A0003D1E00083D1E00083D1E00083D1E0008C4
:1000B0003D1E00083D1E00083D1E00083D1E0008B4
:1000C0003D1E00083D1E00083D1E00083D1E0008A4
:1000D0003D1E00083D1E00083D1E00083D1E000894
:1000E0003D1E00083D1E00083D1E00083D1E000884
:1000F0003D1E00083D1E00083D1E00083D1E000874
:100100003D1E00083D1E00083D1E00083D1E000863
:100110003D1E00083D1E00083D1E00083D1E000853
:100120003D1E00083D1E00083D1E00083D1E000843
:080130003D1E00083D1E000801
:1001380053B94AB9002908BF00281CBF4FF0FF3146
:100148004FF0FF3000F00CB8ADF1080C6DE904CEAB
:1001580000F008F8DDF804E0DDE9022304B0704798
:10016800704700BF2DE9F04786468C460846089E32
:10017800154674461946002B40F0C2808542B2FAF3
:1001880082F245D94AB1C2F1200300FA02FC2EFAE4
:1001980003F3954043EA0C0C94404FEA154EA8B27D
:1001A800BCFBFEF8230C0EFB18CC08FB00F943EA55
:1001B8000C43994528D9EB1808F1FF3704D2994523
:1001C80002D9A8F102072B44A3EB0903A4B2B3FB9D
:1001D800FEFC0EFB1C330CFB00F044EA0344A04277
:1001E80014D92C190CF1FF3304D2A04202D9ACF176
:1001F80002032C44241A43EA07401EB1D4400023CA
:1002080034607360BDE8F0874746DDE76346F1E791
:1002180092BB431B01214FEA154EAFB2B3FBFEFC64
:10022800200C0EFB1C330CFB07F840EA03439845EF
:1002380062D9EB180CF1FF3004D2984502D9ACF121
:1002480002002B44A3EB0803A4B2B3FBFEFC0EFB95
:100258001C330CFB07F744EA0344A7424ED92C1978
:100268000CF1FF3304D2A74202D9ACF102032C44AB
:10027800E41B43EA0040C0E7C2F1200320FA03F17F
:10028800954090402EFA03F303434FEA154EAFB260
:10029800B1FBFEFC0EFB1C10190C0CFB07F841EA25
:1002A8000041884504FA02F422D969180CF1FF309C
:1002B80004D2884502D9ACF102002944A1EB080117
:1002C8009BB2B1FBFEFC0EFB1C110CFB07F743EACB
:1002D80001439F420ED9EB180CF1FF3104D29F4223
:1002E80002D9ACF102012B44DB1B41EA004192E741
:1002F8006046E3E76146F7E76046A3E76346B7E78A
:10030800834206D916B9002108467BE7C6E900E012
:10031800F9E7B3FA83F78FB9834201D3724508D856
:10032800BEEB020460EB030301209C461EB90021CA
:1003380068E73846FAE7C6E9004CF8E7C7F1200C49
:10034800BB4022FA0CF41C432EFA0CF120FA0CF3F1
:10035800B84001434FEA14490EFA07F5B3FBF9F820
:100368001FFA84FE09FB18300B0C08FB0EFA43EA4F
:1003780000439A4502FA07F240D9E31808F1FF3022
:1003880004D29A4502D9A8F102002344A3EB0A0338
:1003980089B2B3FBF9F809FB183308FB0EFE41EAF2
:1003A80003418E452CD9611808F1FF3304D28E45DC
:1003B80002D9A8F10203214443EA0040A0FB0298B5
:1003C800A1EB0E014145CE46434602D306D14D4529
:1003D80004D2B9EB020E68EB04030138002EA6D054
:1003E800B5EB0E0261EB030101FA0CFC22FA07F3EC
:1003F8004CEA0303F940C6E9003198E74046C5E7EF
:100408004346D9E7034613F8012B002AFBD1181AF3
:10041800013870477FB5CDE90423074B02930023C9
:100428000391CDE9003305490322184606F08DFAF9
:1004380007B05DF804FB00BFAC9000083C8B0008D7
:10044800084B1A691268920548BF80F0010028B16C
:100458009B68DB6803484FF4007118479B681B6969
:10046800F8E700BF9088000830B59DB00024554BD0
:100478000293CDE90044544923460322204606F05E
:1004880064FA524D284607F0ADFDC0B12A69A96843
:10049800136823F4007313600B684FF420220921BA
:1004A80028469847002835DA494B0390CDE901439F
:1004B8004549009423460122204606F046FA0024C6
:1004C800444B41490293032223462046CDE9004488
:1004D80006F03BFA00F00AF900281FDA3E4B0390B9
:1004E800CDE901433849009423460122204606F00D
:1004F8002CFA3A4B02930023CDE900333249384CA9
:100508000322184606F021FA00252046294605F060
:1005180033FCFAE70120FFF793FFD0E73148214683
:1005280000F0DEF900F06EF9002802DA2E4B039095
:10053800D6E700F0E7F9C3790A93837909934379F9
:10054800089303790793C3780693837805934378D0
:10055800049303780393254B1B4900940322CDE9A8
:10056800014305462346204606F0EFF90CA9284624
:1005780000F0E6F912AD0EA90CA800F0FFF9294623
:100588000EA8282200F01AFA194B0F490395CDE955
:100598000143204623460094032206F0D6F9154B62
:1005A80009490094CDE9014303222346204606F079
:1005B800CCF9064807F016FD00289AD02046FFF728
:1005C8003FFF96E7D29000083C8B0008908800080F
:1005D800F59000081691000829910008BD910008BF
:1005E800C02709001D040008419100085A9100081D
:1005F8008A9100089991000802460B46014804F0C8
:1006080081BE00BF08020020014804F0F3BE00BF0D
:10061800080200202DE9F04FC9B02F4B02930023A8
:10062800CDE900332D49DFF8B8800322184606F0DB
:100638009BF9A8F104054CF250360027BFF35B8FF5
:10064800D8F80030BFF35B8F5BB9264A2349009383
:10065800CDE901321846032206F086F949B0BDE813
:10066800F08F28688368CDE900670DF11D0A0DF148
:100678001E09CDF80CA0CDF80890DB68002208A967
:100688009847041E0EDA14F10B0FD7D0164B0293BD
:100698000023CDE90033114903940122184606F0DE
:1006A80063F9CBE7CAD04FF0FF304FF0FF31FFF7C7
:1006B800A3FFD5E905B30593FFF7A6FFBBF1000F2C
:1006C800BCD0059B00939AF90030B9F90020214667
:1006D80008A8D847B2E700BFE09100081C8B0008C3
:1006E800E40400200C920008FA91000870B53C4C14
:1006F8003C4B2046002140F8043B90B006F043F9FB
:1007080004F1080006F03FF90D462068616107F022
:1007180069FC034658B9344A0090CDE901023349CF
:10072800012206F021F96FF0120010B070BD0CAE76
:100738001021304602F0DEF90728034604F10C02C6
:100748003EDD96E8030082E803000393284B27491F
:100758000095CDE9015303222B46284606F004F9FB
:10076800237BE27C214923F0010343F00203237336
:100778000A92A27C0992627C0892227C0792E27B10
:100788000692A27B0592627B0024CDE90332194BC5
:100798000293032223462046CDE9004406F0E4F8FC
:1007A8001548012106F0EFF8144B10490094CDE9E3
:1007B800014320462346032206F0D6F82046B4E734
:1007C8000821104601F00AFD0D4B08490095CDE9B6
:1007D800015302222B46284606F0C6F8C0E700BFA0
:1007E800E004002008890008269200081C8B0008F5
:1007F8003C9200085A910008E804002098920008EA
:100808005F92000870B52C4E8CB04FF0FF304FF05F
:10081800FF31FFF7F1FEBFF35B8F3468BFF35B8FE7
:100828001CB1FFF7F1FE00251CE0244A56F8040C21
:100838004FF48533CDE90823214BCDE90A34836889
:1008480008A91B689847051E0FDA1E4B1E49039519
:10085800CDE90143012223462046009406F084F89E
:10086800FFF7D2FE28460CB070BD0121304606F0D5
:100878008AF800220023CDE906230723CDE90243A5
:10088800CDE90044114B124904944FF40062114819
:1008980004F0C2FF10490F4807F04BFCFFF7B4FE05
:1008A8000E4B09490094CDE9014303222346204613
:1008B80006F05AF8B7E700BFE4040020C0CA89363A
:1008C80008001601B39200081C8B00081D060008DA
:1008D8004009002020020020CA920008D292000895
:1008E80038B504460D464FF0FF304FF0FF31FFF7A3
:1008F80083FE034BC3E90545BDE83840FFF784BED6
:10090800E00400201FB50B48BFF35B8F0468BFF3FA
:100918005B8F64B9084B09490094CDE9014320462F
:100928002346012206F020F8204604B010BD04300A
:10093800FBE700BFE8040020F79200081C8B0008C2
:100948001FB500B161B90B4B02930023CDE9003309
:1009580009490122184606F021F805B05DF804FBA4
:1009680003680B6043684B600B7883F002030B70DD
:10097800F3E700BF1E930008148B00081FB500B1F1
:1009880061B90B4B02930023CDE9003309490122D9
:10099800184606F003F805B05DF804FB064A13682C
:1009A8000B6053684B6003688B604368CB60F2E769
:1009B80039930008148B0008C88B000870B50C46E2
:1009C80090B0154600B159B9244B02930023CDE9E4
:1009D800003323490122184605F0E0FF10B070BD2E
:1009E800272A04D8002AF9D000230B70F6E7C37B26
:1009F8000E93837B0D93437B0C93037B0B93C37AFA
:100A08000A93837A0993437A0893037A0793C379FD
:100A18000693837905934379049303790393C37801
:100A28000293837801934378009303780D4A29460B
:100A3800204605F001FD002801DB8542CED80026BE
:100A4800094B02932C44CDE900660549334602223E
:100A5800304605F0A3FF04F8016CBFE75793000880
:100A6800148B000876930008BE9300082DE9F04F18
:100A780091B08407009302F004030293C2F3C20307
:100A880003F10103DDF86890039205460E460593CD
:100A980040F0BA81041D30B1072909D86FF01B0056
:100AA80011B0BDE8F08F01F00706341DC6F1080645
:100AB800009B4FF00008591E4FF0040A4FF0FF3317
:100AC8000193CDF810804746C34653460DB1009AAE
:100AD80022600598002800F3E8809848009A82422E
:100AE80003D397488242C0F0E080039AA4EB050E36
:100AF80092074FEA9E0000F103810F2F00F2B180A8
:100B0800002D00F0058107F140020DEB020C019A5F
:100B18000CF8200C0CF8102C049801300490E7E035
:100B28007A285DD84B280ED8472859D829282DD897
:100B3800252852D054D820287AD02338D0F1000B59
:100B48004BEB000B74E04C382E2849D8DFE800F056
:100B58007048484848484848484848484B484848E2
:100B6800484848484859484B4B595959704B6D4863
:100B78007048184B184848827F4B48484B487F00BC
:100B880000204FF0000B4FF0040A38E02A38C0B2BA
:100B9800012202FA00F010EA0E0F49D110F0625C4F
:100BA8002FD110EA020B43D06046013C5444B4FBF9
:100BB800FAF40AFB04F4002D61D0A3EB050CA4445D
:100BC800B4453FF66BAF002868D1042B47D159F8DC
:100BD800043B2360043404232AE0019A013A019279
:100BE8004FF0000B24E011F8010C6C2834D111F8F7
:100BF800023C00206C2B8346C5D14FF0080A5346AF
:100C0800D3E709F1070929F007090734F9E802AB26
:100C180024F0070435B106982044B0423FF63EAFB1
:100C2800C4E900AB08344FF0000B4FF0080A5346F4
:100C380011F8010F002878D0BBF1000F7FF470AFD6
:100C48002528F5D1019B013301934FF0010B4FF09B
:100C5800040AECE7584694E700208346A5E7082BEA
:100C680002D06FF015001BE709F1070929F0070901
:100C7800F9E80223C4E9002308340823D8E768B94F
:100C8800042B02D109F10409A4E7082BE9D109F1E1
:100C9800070929F0070909F10809EDE7059A013A5A
:100CA800059259F8042B009210E7039A900720D573
:100CB800A4EB050E4FEA9E004FF0010CBEF5007F35
:100CC800CFD20F2FCDD8F5B107F140020DEB020EB0
:100CD800C0B2019A0EF8200C0EF8102CBCF1000FCF
:100CE8003FF41AAF60F07F000EF8200C08F10108FD
:100CF8000137C5F10802043406924FF6DA7E97E709
:100D08004FF0000CDAE7BCF1000F01D00136EFE735
:100D1800029802360028EBD10098CDE90631FFF79A
:100D280071FBDDE906310644E2E7631BB3F5806F2A
:100D380097D23DB9A6F10804E018B1E694870008F7
:100D4800909D0008029A28609B082B709DF810302F
:100D5800C2B1EB7085F80280B8F1000F05D008A881
:100D68000022C5F1010C97420ED1C5F101030DF126
:100D780020094FF0000A01930DF1300B574512D1AD
:100D8800601B8DE66B70E5E710F8013B190608D586
:100D980004EB0C0EB64503F07F033FF67FAE04F874
:100DA800013B0132DFE7B8F1000F03D099F90020C9
:100DB800002A17DB029BD3B11AF80B2004F8012B89
:100DC8000022019B98182044B0423FF667AE99F87C
:100DD800000004F8010B00990392204607F04BFC31
:100DE800039A14440AF1010A09F10109C6E799F8BE
:100DF800002055F822300093029B45F822300098D5
:100E0800FFF700FB421CDCE76FF00D0048E600BF6F
:100E1800014B1860704700BF0000002080B50546F0
:100E28000E461746984604F0C5FF034607F0A4FC93
:100E3800DFF81890044649F80030424630463946F3
:100E4800A84754F8090000F0B5FE00BF08000000EC
:100E5800034A536823F0020353600020704700BF21
:100E6800002004E0084B1A6842F400721A601A68FD
:100E780042F480621A601A6842F480721A60034B66
:100E8800034A1A600020704700400058880100207B
:100E980000093D002DE9F84F81462E480F4605F020
:100EA80040FE064670B92C4CDFF8B0A00546A046B7
:100EB8004FF0010B544507D3B9F1000F02D04FF0A2
:100EC800010AE5B9BDE8F88F237B6BB12368DB68BD
:100ED8000BB12046984723681B6943B9636804220D
:100EE8001968204600F0C6F801361034E2E72046BB
:100EF80098470028F2D00BFA06F31D43F4E7A946F9
:100F080095FAA5F4B4FA84F40AFA04F3260108EB76
:100F180004146FEA030B25EA0305237B63B158F831
:100F280006301B698BB94644042273682046196849
:100F380009EA0B0900F09EF8002DE1D11FB16420E9
:100F4800002104F019FF4D46BBE7204698470028CA
:100F5800F2D1E8E704050020848B0008948B000890
:100F6800014B53F820007047EC8B000808B5034686
:100F780008462BB1044A136000F07CFA002008BD33
:100F88006FF01500FBE700BF04000020054A064883
:100F980000231370054A1360054A4FF47A711360F1
:100FA800FFF7E4BF2C0800201B6B0008FC0400209E
:100FB8000005002070B50B4D297841B90120FFF7D5
:100FC80069FF094C094EB44202D301232B7070BD4E
:100FD80063685B791BB1236820469B689847103487
:100FE800F1E700BF2C080020848B0008948B0008D0
:100FF80010B50446084805F094FD5CB1BFF35B8F5B
:10100800064B53E8001F013943E80012002AF8D1C3
:10101800BFF35B8F10BD00BFFC040020000500205B
:1010280070B50A4B0A4C1B680A4E05469847A860DB
:10103800B44200D370BD63685B7923B12368294645
:101048001B68204698471034F2E700BF04000020D0
:10105800848B0008948B0008044A054B9B1AB1EB5B
:10106800D30F34BF52F83100002070470C8B0008B2
:10107800848B0008084BC31A10B41B114468013351
:10108800237143689A7143681960436801225A7151
:1010980010BC05F068BD00BF848B00082DE9F04F37
:1010A80087B004AFD7E90EA93D6B04460E469346B8
:1010B8009846BAF1000F1ED0C7F80490CDF80090FA
:1010C80010217A6B53460020FFF7D0FCB0F5006F73
:1010D800014611D340F2FF730393194B0293002387
:1010E800CDE9003317490222184605F058FD0C37A0
:1010F800BD46BDE8F08F514604F007040BF0070B1E
:10110800E40044EA8B1444EA412444EA05541735C0
:101118000D4425F00705ADEB050D04ADBAF1000F40
:1011280007D0CDF800907A6B534605F11000FFF711
:101138009DFC434622463146284605F017FDD6E772
:1011480011940008248B0008406820B1034BC01A92
:1011580040F3CF0070474FF0FF3070470C8B00080A
:101168000EB403B503AB014653F8042B04480193AE
:1011780001F006F802B05DF804EB03B0704700BF59
:10118800C76B0008CA0605D48B064CBF0249034941
:10119800FFF7E6BF704700BF4A940008499400086B
:1011A8002DE9F04F89B09B46149B06939DF84CA0FF
:1011B800159B0593169B179E049304460D4690466F
:1011C800BAF1000F00F09D8006F48073079305F0D4
:1011D800CBFC06F00209024600283ED09149204681
:1011E800FFF7BEFF0746B9F1000F08D016F0440F0D
:1011F80035D18D492A462046FFF7B2FF074406F04D
:10120800010353B1894B8A4953F82A20894B204658
:10121800002A08BF1A46FFF7A3FF06F48073002BC5
:1012280049D006F00803002B63D1B8F1000F66D04F
:10123800814942462046FFF793FF0546069B3D44F9
:10124800002B6DD1049B002B73D1F30700F1E480D0
:1012580031462046FFF796FFD8E00746C3E7774BAD
:1012680018680028CAD0764B4FF47A791B68B5FB0A
:10127800F3F54FF46161B5FBF0F300FB135509FB7F
:1012880005F54FF03C0CB3FBF1F201FB1231B5FB55
:10129800F0FEB1FBFCF300FB1E550CFB131109FB20
:1012A80005F50091B5FBF0F56649CDE901E5204665
:1012B800FFF756FFA2E706F00803EBB1624B63495C
:1012C80053F82A202046FFF74BFF0546B8F1000FD8
:1012D80005D0594942462046FFF742FF0544BBF175
:1012E800000FABD05A495A462046FFF739FF05444C
:1012F800A4E74FF0000BE1E706F00805E6E74546EE
:101308009CE7BBF1010F069B06D1002B64D1049B1F
:10131800002B7BD000250CE0002BF8D04D485CE07A
:101328004D48069B4D49224605F0B0FB049B002B17
:1013380068D0DFF82C81DFF82C91049F3146102FFC
:10134800204628BF1027FFF71DFF4FF0000B5D4513
:1013580045DC059B49461A782046FFF701FF4FF008
:10136800010B1BF0070F03D141462046FFF7F8FE9B
:101378005F453BD9059B494613F80B202046FFF7EC
:10138800EFFE0BF1010BBBF1100FEAD136492046F5
:101398004FF0000BFFF7E4FE5A46059B9A5CA2F15A
:1013A80020015F2928BF2E2230492046FFF7D8FEAA
:1013B8000BF1010BBBF1100F1DD01BF0070F03D170
:1013C80041462046FFF7CCFE5F455A46E5D84146E0
:1013D8002046FFF7C5FEEBE71F485546A1E7414603
:1013E8002046FFF7BDFE0BF1010BB0E72049204670
:1013F800FFF7B6FEC5E7059B3B440593049BDB1B43
:1014080004939AD1BAF1000F7FF41FAF204609B0B8
:10141800BDE8F04F05F0FDBB064A05492046FFF739
:101428009FFE15E75194000855940008FC8B0008AE
:10143800969100084C9400087A9400080C05002046
:10144800080500205E940008108C00087E940008AF
:1014580084940008E36B0008C76B00088921000822
:1014680091940008899400089394000895940008C2
:101478008F940008074A00210123904206D8064AA3
:1014880001B901231360054B1860704740085B00E1
:101498000121F2E740420F00080500200C0500205A
:1014A800F8B5074F0D4604464618B44201D1284600
:1014B800F8BD14F8011BBB6801485B689847F4E75E
:1014C800CC880008014B036000207047588C000846
:1014D80070B5064686B00D46002938D08B6805934E
:1014E8004B6804930B6803930024244B244902930C
:1014F800012223462046CDE9004405F0EFFB6B6945
:1015080005932B690493EB6803931E4B1C490094C5
:10151800CDE9014301222346204605F0DFFBEB69B4
:101528000393194B16490094CDE901430122234640
:10153800204605F0D3FBAB690393144B1049009484
:10154800CDE9014301222346204605F0C7FB012EC1
:101558000DD1EFF30583103B03930D4B029300234A
:10156800CDE9003306493246184605F0B7FB29464F
:10157800304606B0BDE8704003F034BDD294000890
:101588004C8B000801950008309500083F9500082D
:101598006D95000830BFFFF7FDBF00BF2DE9F04192
:1015A8000B4EDFF8308006EB0807CC1B05463246A9
:1015B8000949204607F05FF8A01942460021083C77
:1015C80007F067F86C6707F10800BDE8F08100BF15
:1015D8000000000004000000948B0008074A93688C
:1015E80093F90E10002907DB526993421FBF044A82
:1015F800536843F080535360704700BFF4070020DE
:1016080000ED00E0F0B585B000243B4B0293CDE936
:101618000044234607460E4601223849204605F075
:1016280078FB374B9B6ADB0464D5364B334900940F
:10163800CDE9014320462346012205F06AFB172025
:101648002F4B9B6A1D050AD52F4B02930023184682
:10165800CDE900332949012205F05BFB1820284D0C
:10166800AB6A9C051FD50024284B2449029301220C
:101678002346CDE90044204605F04BFBAB6BAA6A34
:1016880011040FD50393224B1C490094CDE9014363
:1016980001222346204605F03CFB1FB1AB6A23F428
:1016A8000043AB621920164B9B6A5A050AD5194BA1
:1016B800029300231846CDE900331049012205F0B2
:1016C80028FB1A200E4B9B6ADB050AD5124B0293A6
:1016D80000231846CDE900330849012205F019FB1B
:1016E8001B20074A936A43F47F43936200233370B5
:1016F80005B0F0BD1620A3E7809500084C8B0008C4
:1017080000ED00E096950008A7950008BA95000836
:10171800D3950008E8950008039600081FB5002433
:10172800374B029301222346CDE900443549204630
:1017380005F0EFFA344B9B6A9A015ED5334B314979
:101748000094CDE9014320462346012205F0E1FA41
:101758001E202D4B9B6ADB010AD52D4B02930023DB
:101768001846CDE900332749012205F0D2FA1F2097
:10177800254B9B6A1C030AD5264B02930023184667
:10178800CDE900331F49012205F0C3FA21201E4B81
:101798009B6A59030AD5204B029300231846CDE9CA
:1017A80000331849012205F0B4FA2220164B9B6A2F
:1017B8009A030AD5194B029300231846CDE9003342
:1017C8001049012205F0A5FA23200F4B9B6ADB0381
:1017D8000AD5134B029300231846CDE90033094973
:1017E800012205F096FA2420074A936A6FEA034318
:1017F8006FEA1343936204B010BD1D20A9E700BF30
:101808001B9600084C8B000800ED00E0339600089A
:1018180046960008609600087E960008A396000881
:10182800BD9600082DE9F04385B00024424B029391
:10183800CDE9004423468046894620463F4917465D
:10184800012205F066FA3E4B9B6AD80640D53D4B0F
:101858000094CDE90143204623463849012205F08A
:1018680058FA1124364B9B6A19070AD5364B02934E
:101878000023CDE9003331490122184605F049FA21
:1018880012242F4DAB6A9A0724D500242F4B0293BC
:10189800CDE90044234629490122204605F039FABA
:1018A8006E6BAB6A1B0643D5294B24490396CDE9D9
:1018B8000143009423460122204605F02AFAB9F193
:1018C800000F03D0AB6A23F08003AB62132403E05C
:1018D8001024C7E76FF01506194B9B6AD8070AD57D
:1018E8001C4B02930023CDE900331449012218460A
:1018F80005F00FFA1424124B9A6AD10602D49A6A98
:1019080092070AD55B681B0507D54146304600F0AB
:1019180047FA10B180F309880224094A936A43F010
:10192800FF039362204600233B7005B0BDE8F083B7
:101938006FF01506CAE700BFE89600084C8B000850
:1019480000ED00E0FE960008A79500083197000812
:10195800499700085F9700082DE9F041754B5F68CB
:1019680090B00446C7F30806002383F31188BFF339
:101978006F8F02F07F40B0F17F4F0CD102F00C0066
:10198800082819D16C4A6D490093CDE901321846EF
:10199800012205F0BEF900252C464FF00008F31E81
:1019A8008DF81F80092B00F2AC80DFE803F00BA054
:1019B800A49DAAAAAAAAAAA8120746BF0C461D4611
:1019C8000125EAE75E4B5D495A4FCDF80080CDE925
:1019D800018300230122184605F09BF98DF81F802A
:1019E800FE6A16F0020605D0564BCDF80080CDE908
:1019F800018306E0FB6A002B0BDA534B0096CDE916
:101A0800016300234D490122184605F082F900229E
:101A18003CE0FB6A5B00FAD54C4B48490096CDE99F
:101A2800016301223346304605F073F97B69A269E8
:101A380043F480737B61BFF34F8FBFF36F8F7B6974
:101A480032F8022C23F480737B61BFF34F8FBFF30E
:101A58006F8F4DF602739A420BD0BB6ADBB2002B34
:101A680034D00DF11F0201212046FFF7DBFE0246AC
:101A78000CE023680393364B30490096CDE90163A7
:101A880001223346304605F044F922689DF81F309C
:101A9800CBB908AE04F1200720686168334603C358
:101AA8000834BC421E46F7D10F9B002D3DD0C3F32E
:101AB800080121B96FEA53236FEA43230F9308A95A
:101AC8001046FFF705FD10B0BDE8F081BB6A13F4BE
:101AD8007F4F05D00DF11F010120FFF793FDC6E7E9
:101AE800BB6AB3F5803F92D3FFF718FEBFE70DF14D
:101AF8001F020021B8E70DF11F010020EDE7154B8B
:101B080073E7154A154B0D4917F4F87F18BF1346AC
:101B1800103ECDE90336124B02930023CDE9003382
:101B28000122184605F0F5F871E723F4FF7323F056
:101B38000103C3E700ED00E0AC9700084C8B0008F8
:101B4800D7970008EE9700080F9800081D9800081E
:101B58003C98000858980008939700087E9700085A
:101B68007C980008024A536943F010035361704798
:101B780000ED00E0EFF30880EFF3098101B572464C
:101B8800FFF7EAFE01BD00BF102080F31188084866
:101B98004FF40461401880F30988EFF314800221A0
:101BA800084380F31488BFF36F8F00F0C7F8000074
:101BB80080110020084B9B6883420BD1EFF305830B
:101BC80043B1064B5A6842F080525A605A6A22F46E
:101BD80000425A6206F09DBBF407002000ED00E0C9
:101BE800094A93686FF00A01D967084998674B68F2
:101BF80043F080534B60002383F31188BFF36F8F4A
:101C08009368D86F704700BFF407002000ED00E02C
:101C180010B50446EFF31183102383F31288BFF342
:101C28006F8F0A4B58699860094B4FF000625A60F1
:101C3800084B426F1A600022836F826783F3118812
:101C4800BFF36F8F00F014F9204610BDF407002091
:101C580000ED00E03C0500200B498A684FF0300099
:101C68001044EFF3098C80E8F01F74467046FFF7C4
:101C7800CFFFA64604498A6802F1300090E8F01FB9
:101C88008CF3098870470000F40700201EF0040F49
:101C98000CBFEFF30880EFF30980816911F8021C8B
:101CA8000229FFD001B505F029F801BD40B200288E
:101CB80007DB044A4109012300F01F00834042F872
:101CC8002130704700E100E040B200280CDB4309F6
:101CD800064900F01F0020330122824041F82320EA
:101CE800BFF34F8FBFF36F8F704700BF00E100E075
:101CF800054B420900F01F0053F82220012303FA84
:101D080000F01040704700BF00E100E040B200283A
:101D1800A8BF00F1604001F10101B8BF064B4FEACE
:101D28000111ACBF00F5614000F00F00C9B2B4BFAB
:101D3800195480F80013704714ED00E008B5084BFB
:101D4800084A23F07F039360BFF34F8FBFF36F8F71
:101D580003F026FA04F0CCF800F060F803F064FA17
:101D68000000000800ED00E042F8203C009B42F82B
:101D78001C3C0A49019B42F8183C029B42F8143C5F
:101D880021F001014FF0807342F8043C42F8081C2E
:101D98000023203A02658367704700BF250E0008BC
:101DA800094A0346906870B113F1160F406E05D0CA
:101DB800A0F140029A4205D8834203D2814228BF4B
:101DC8000020704700207047F407002008B515462A
:101DD8000B4A0C4B9060426F1A600E4600F048F8B0
:101DE8002C4686F309884FF00000074B9847204699
:101DF8004FF000014FF000024FF00003034C204762
:101E0800F40700203C050020436D0008250E00085B
:101E1800014B10221A61704700ED00E004480023CE
:101E28001021C21801333E2B82F80013F9D17047F4
:101E380000E100E008B5EFF30583064A103B02EB2A
:101E4800C30152F8330049688847BDE80840FFF7E6
:101E5800C5BB00BF1C890008024B034A0348012187
:101E680000F096B80000012000000020588C0008FF
:101E7800426E054B403A1A60044A4021C3E90112F8
:101E88001846012100F08EB84005002000000B150F
:101E98001FB5144AD2F89030C3F30723013B984288
:101EA8000FD9114B029300230390CDE90033184654
:101EB8000E49012204F065FF6FF0150005B05DF8CA
:101EC80004FBC2F898000B6823F01F03034343F098
:101ED8001003C2F89C308B6843F00103C2F8A030AD
:101EE800ECE700BF00ED00E093980008448B000881
:101EF800F0B50E4689B01F4604460025B54212DAF1
:101F0800606838B3BFB1431E18420FD0134B029319
:101F18000023CDE90033124903950122184604F045
:101F280030FF6FF01502104609B0F0BD1F28EDD93B
:101F380021680B42EAD12368059304F012FFA368D5
:101F480005A90343D0B20793FFF7A2FF10F1160FBC
:101F5800E7D0421C01350C34D0E700BFB99800081F
:101F6800448B0008044B0522C3F89420BFF34F8F1D
:101F7800BFF36F8F704700BF00ED00E0BFF35F8FC6
:101F8800024B0022C3F89420704700BF00ED00E028
:101F980010B5034C01232278FFF7AAFF207010BD6B
:101FA8002E08002008B50B4A00231278FFF7A0FF7F
:101FB80010F1160F07D0084A0021D2F89030C3F369
:101FC8000723984200DB08BDC2F89800C2F8A010A9
:101FD8000130F2E72E08002000ED00E02DE9F04383
:101FE80057485849D0F890300D68C3F307239D42ED
:101FF80085B000F2A180FFF7C1FF49680022954231
:1020080001F10C011AD1504C504F25706846FFF76A
:1020180059FADFF83C81DFF83C9106460025AE42CC
:102028001FD1237846490020D1F89020C2F3072217
:1020380093427BDBFFF796FF00204CE0C0F8982026
:1020480051F80C3C23F01F03134343F01003C0F86E
:102058009C3051F8043C43F00103C0F8A030013231
:10206800CDE7009800EB05114FEA051CCB683B4013
:10207800B3F5000F44D00AD8B3F5001F2ED0B3F53E
:10208800800F34D0B3F5801F10D00135C7E7B3F106
:10209800807F3ED0B3F1007FF7D150F80C308868CC
:1020A8004A6804F05EFE40F4802009E050F80C30E5
:1020B80088684A6804F055FE40F0885040F43020A3
:1020C800039001A92078CDE90123FFF7E1FE00285C
:1020D80028DA6FF0150005B0BDE8F08350F80C3031
:1020E80088684A6804F03DFE40EA0800E8E750F8CE
:1020F8000C3088684A6804F034FE40EA0900DFE7DB
:1021080050F80C3088684A6804F02BFE40F0827062
:10211800D6E750F80C3088684A6804F022FE40F090
:102128008870CDE7237801332370AEE7C1F8983083
:10213800C1F8A000013377E74FF0FF30CBE700BFCD
:1021480000ED00E0648C00082E0800200000F0FF7D
:10215800000008110000020708B5024B1B689847E9
:10216800002008BD4C050020034B044A18609378F2
:1021780043F00203937070474C05002010000020C4
:10218800F0B587B007460E4614460021102268466F
:102198001D4606F07EFA02238DF802302A46054BCA
:1021A800019321466846CDE9047604F071F907B039
:1021B800F0BD00BFAB6D000808B50649064821F020
:1021C8000701C1F1005202F5803204F022FC002020
:1021D80008BD00BF8723002050050020F7B506463C
:1021E8000D460D4883688AB21B6831469847002817
:1021F80010DA00240CE02F1B042F28BF042702F05C
:1022080003FE3A46019001A9301906F034FA3C441D
:10221800A542F0D803B0F0BDB88800082DE9F04118
:102228000F4E104F054600244FF001082B7853FA43
:1022380084F01F280DDCF26808FA00F333EA020282
:1022480007D1F36057F830301BB107EBC002516873
:1022580098476A780134E3B29A42E7D2BDE8F08140
:10226800000800585C050020044B18440023013383
:10227800994200F8012BFADC704700BF9C0100204E
:1022880010B4074B07490246D1F88040185601237D
:1022980093402343C1F8803010BCFFF707BD00BF4F
:1022A8009C010020000800581F2808DC044901226E
:1022B800D1F88030824023EA0203C1F880307047A9
:1022C8000008005803292AD8DFE801F0020E141F7D
:1022D800134B01221968824021EA020119605968EA
:1022E80021EA02025A6070470D4B012219688240A8
:1022F8001143F3E70A4B01225968824011435960A0
:10230800196821EA02021A607047012303FA00F0F3
:10231800034B1A6802431A605A68104358607047A2
:102328000008005830B50A4B53F830408C4204D1AD
:1023380003EBC0056D68954205D034B943F83010F9
:1023480003EBC0035A60002030BD6FF00F00FBE7BD
:102358005C050020034B002243F8302003EBC00348
:102368005A6070475C05002010B51B4B18680B6855
:10237800062B144615D0092B0AD893B1013B082B1C
:102388000FD8DFE803F019172225270E0E1C1C00B2
:10239800582B11D008D84C2B0ED0502B0CD0482BD2
:1023A8000AD06FF0850009E0602B05D0642B03D0BC
:1023B8005C2BF5E74FF400402060002010BD00F0D2
:1023C800DDF8062358434008F6E74FF4FA40F3E7F0
:1023D8000248F1E70020EFE7880100200024F4001C
:1023E80070B5624D04F0A3FD284604F09FFD02F08D
:1023F8001FFD4FF0B0435E4AD3F8083103F00F03D6
:1024080052F823601368B0FBF6F6B5FBF3F5AE425D
:1024180002D2284602F07EFD04F017FD012809D0FB
:102428004FF0B042136843F48073136004F00DFD5D
:102438000128FBD14FF0B043D3F8942042F00102B9
:10244800C3F89420D3F894209207FBD5494B1A6817
:1024580042F480721A601A68D405FCD54FF0B04374
:10246800D3F8902042F00102C3F89020D3F89020CE
:102478009007FBD5D3F8902042F08002C3F8902053
:102488004FF0B042D2F890301905FBD539490B68A6
:1024980023F480730B60936803F00C030C2B1CD19E
:1024A80004F0D3FC012807D0136843F48073136049
:1024B80004F0CBFC0128FBD14FF0B0439A6822F01E
:1024C800030242F001029A609A6802F00C02042AA0
:1024D800FAD19A6822F0F0029A604FF0B04423686B
:1024E80023F080732360E36823F0606343F0007394
:1024F800E360E36843F08073E36000F043F8236827
:1025080043F08073236023689B01FCD5A36823F004
:10251800F003A360A36843F00303A3604FF0B04245
:10252800936803F00C030C2BFAD1AE4202D3284671
:1025380002F0F0FC104B0D4A1A604FF0B043002037
:102548009A6822F4E0629A609A6822F460529A606B
:10255800D3F8082122F0F002C3F80821D3F80821A3
:1025680022F00F02C3F8082170BD00BF006CDC0226
:10257800289000080004005888010020004870478F
:102588000024F4004FF0B0430549DA681140054AC9
:102598000A43DA60DA6842F08052DA60704700BFB6
:1025A8008C80FF1F0206002008B5074805F01AFDB9
:1025B80038B10648FFF7D8FD0448FEF729FC00208B
:1025C80008BD6FF01200FBE7CC880008D925000889
:1025D8000A2838B5074D044604D1AB680D215B685D
:1025E80028469847AB6803485B68E1B2984720469D
:1025F80038BD00BFCC880008054A11680B6823F075
:1026080004030B605068034A836811685B681847C5
:10261800200000208C00002010B5084B084AD3E9A0
:102628000040836811681B689847236843F00403D7
:102638002360236843F00803236010BD20000020B6
:102648008C00002008B5EFF31181102383F3128862
:10265800BFF36F8F084B012093F8482083F8480098
:1026680081F31188BFF36F8F22B9FFF7D5FF3420AC
:10267800FFF71CFB002008BD20000020F8B5164617
:10268800837890F803C0EFF31182102484F3128842
:10269800BFF36F8F077890F801E0DB1B03EA0C03A8
:1026A8009E4288BF9EB2BD190CEA05053C460570DE
:1026B80082F31188BFF36F8F8A198A421AD177453E
:1026C8000CD1EFF31182102181F31288BFF36F8FC1
:1026D8000178417082F31188BFF36F8F02799B1BD9
:1026E8009A4205D305F01FFD60B1084803F004F8CD
:1026F8003046F8BD051901346D7901F8015B04EA2B
:102708000C04DAE7FFF79EFFF2E700BF580000204D
:102718002DE9F843134F0D46144607F1560807F103
:10272800180914B92046BDE8F8834FF0FF324FF07E
:10273800FF33384602F0BEFE224629464046FFF7E0
:102748009DFF064630B94FF0FF324FF0FF33484641
:1027580002F0B0FE3846A41B02F088FEA4B235444D
:10276800DFE700BF2800002038B5046945682E4817
:10277800606005F037FC002853D0606829688368DA
:102788001B6898470122114604F1080005F07DFCFA
:102798000122002104F1200005F077FC234904F10F
:1027A800380005F094FC072384F86130042384F88A
:1027B80062300F23002284F84C300C23114684F831
:1027C8005E2084F85F2084F8602084F8492084F82B
:1027D8004A2084F84B2084F84D303420FFF796FACD
:1027E800134B1B681A694AF674218A420DD01A687D
:1027F80042F080421A600F4A1A6119611A6822F081
:1028080080421A601A685200FCD41A6842F0040226
:102818001A601A6842F008021A60FFF713FF0020D6
:1028280038BD6FF01200FBE72C880008396F0008EC
:1028380020000020BC0A59171B4B1B68EFF31181BD
:10284800102282F31288BFF36F8F5A68500605D49E
:102858005A68D2071DD46FF00A0015E01A6842F0D2
:1028680080421A601A6822F080421A600A221868A8
:10287800400005D45868400602D458684007E7D598
:10288800013AF4D16FF0040081F31188BFF36F8F20
:1028980070475A689007F5D45A685206F2D4986877
:1028A8000028D8D0C0B2EFE720000020D8072DE9D3
:1028B800F0470F46144604D42648FFF7DFFEBDE86C
:1028C800F087B2B3EFF31185102383F31288BFF3B7
:1028D8006F8F3420FFF70CFA06463420FFF7F4F91F
:1028E80085F31188BFF36F8FDFF86C80FFF794FED4
:1028F800D8F800305A68510714D45B685A0611D4C6
:10290800DFF858904FF4801AC9F884A12546D8F802
:1029180000305B68DB070ED4BFF34F8F20BF40BF8A
:1029280020BFF4E7FFF788FF002486B13420FFF7C3
:10293800BDF92046C3E7FFF77FFF031EC9F884A14E
:10294800E5DB013DADB27B55002DE0D1EDE7FFF7AA
:1029580053FEEEE7690000202000002000E100E0BF
:1029680010B5FFF769FF002825DB194C94F84B30A8
:1029780094F84A1094F84C20591A32EA0101C0B26E
:1029880012D194F8603094F85F1094F86120591AC5
:1029980032EA010110D13420FFF796F9FFF72CFE37
:1029A800002384F848300EE0E11801331A4081F81A
:1029B8004E0084F84B2010BDE11801331A4081F80D
:1029C800630084F860200348BDE8104002F04EBD63
:1029D800200000204000002038B5036904465860F4
:1029E800084D284605F0FEFA40B16168AB680C3125
:1029F8001B682846984700EAE07038BD6FF012005F
:102A0800FBE700BF2C88000870B50C461146B1F5ED
:102A1800001F456802691E4624D104F003020432EF
:102A280092000F23934043EA940303F003022F49D3
:102A3800023251F82220190C02EA134391FAA1F24A
:102A4800B2FA82F2D340AA689A4209D12046FFF727
:102A58002BFC2046FFF77EFC00212046FFF732FCC6
:102A6800002070BDB1F5800F37D021492046FFF70F
:102A780059FCA8BBB6F1806F2BD0B6F1C06F2AD035
:102A8800B6F1007F2FD1022104F0030304339B0029
:102A98000F20984040EA940000F003039B0003F1E4
:102AA800804303F58033AD689E68020C92FAA2F267
:102AB800B2FA82F202F00F0226EA104005FA02F298
:102AC80002439A602046FFF7FDFB2046FFF7D8FB3C
:102AD800C6E70121D8E70321D6E76FF08500C0E7F4
:102AE8006FF00F00BDE76FF01500BAE70000014076
:102AF800597100081FB50C4BD3F8982512BA0192EA
:102B0800D3F8942512BA02920C29D3F8903528BF2D
:102B18000C211BBA0C460A4601A9039305F0ABFD2C
:102B2800204604B010BD00BF0070FF1F014802F02E
:102B3800E3BD00BF9800002008B504F037FB024B46
:102B48001B68C01A08BD00BF1C060020014805F01C
:102B58003FBC00BFD00100200A2307B5A0FB032318
:102B680000210020CDE90001024803F08BFB03B0EF
:102B78005DF804FBD001002008B504F017FB014BF9
:102B8800186008BD1C060020014B1868704700BF7C
:102B98001C0600202DE9F347274C9A46D4E90193F7
:102BA80007460D4616467BB1244B00205B6B9847C1
:102BB800CDF800A0D4F80880206833462A46394664
:102BC800C04702B0BDE8F08704F140020223BFF31A
:102BD8005B8F52E8001F012903D142E8003000282A
:102BE800F7D1BFF35B8F9046EBD1A36C1A78AA425A
:102BF80088BF1D70A36C606C1A78394605F03BFDE0
:102C0800E36C03B11E80236D0BB183F800A00B4B5E
:102C1800DB6A984700216160BFF35B8F58E8003F8B
:102C280048E80012002AF9D1BFF35B8F484602B08A
:102C3800BDE8F04703F0B8BB20060020388E000836
:102C480010B5124CBFF35B8F022354E8002F012A02
:102C580003D144E800310029F7D1BFF35B8F0CBFE3
:102C68000120002010D10A4BDB6A9847002344F862
:102C78003C3CBFF35B8F54E8002F44E80031002947
:102C8800F9D1BFF35B8F012010BD00BF60060020A3
:102C9800388E000810B5064B5C68FFF7D1FF30B1DD
:102CA8002CB100212046BDE8104003F07DBB10BDCB
:102CB80020060020F0B5044687B000680E4605F0EF
:102CC80091F92568034670B92A6803921E4A1F497C
:102CD8000090CDE90102012204F08AFA6FF0120592
:102CE800284607B0F0BDE38821793343D802D5F8E8
:102CF80008C02F6906D513F4402F03D0DA0748BF60
:102D080083F440233868012623F480128E40DB07C1
:102D18004CBF3043B0433860DCF800302846984751
:102D280005460028DCD005902379049323680749D9
:102D38001B680393064B02930023CDE9003301225D
:102D4800184604F055FACBE769990008748B000817
:102D58008299000870B50D460F49BFF35B8F0120BB
:102D680051E8004F002C03D141E80006002EF7D1AE
:102D7800BFF35B8F0CD1094E41F83C3CD4B2736D64
:102D8800214698472846B36A21469847002070BDD7
:102D98006FF00F00FBE700BF60060020388E0008C8
:102DA8002DE9F04700258EB005ACDFF8A8808146F4
:102DB8008A4617462946102209A80126CDE9054466
:102DC800CDE9075505F065FC8DF83160D8F830304D
:102DD8000D94002B3BD023463A4651464846FFF710
:102DE800B9FF041E2FDBFFB2CDE901570396B8F8EF
:102DF8003830194C009398F8363098F8352098F800
:102E08003410646A3046A0470A23B040A0FB03236D
:102E1800314609A803F070FA041E14DA0F4B104962
:102E28000095CDE9015332462B46284604F0E0F9D7
:102E3800FFF706FF38B94FF0FF324FF0FF33314646
:102E480009A803F059FA20460EB0BDE8F0876FF0E4
:102E58001504F8E720060020388E0008A29900081B
:102E6800748B0008F0B591B000248DF8172007ADD9
:102E78000F46102221460BA8CDE90755CDE9094494
:102E8800012605F006FC244B8DF839600F95BFF339
:102E98005B8F53E8002FA24203D143E80061002969
:102EA800F7D1BFF35B8F34D10DF1170243E90F540B
:102EB8009A601A4D189ADA60199A1A615F60FF21B0
:102EC8006B6D304698476B6B20469847DDE91623B3
:102ED80031460BA803F010FA051E0ADAFFF7B0FE18
:102EE80050B94FF0FF324FF0FF3331460BA803F0D3
:102EF80003FA9DF8175009E0094B0A490094CDE9F7
:102F0800014303222346204604F072F9284611B0F3
:102F1800F0BD6FF00F05F9E760060020388E000855
:102F2800BE990008748B000810B529B9FFF788FE10
:102F3800D0B96FF0150010BD0E4BBFF35B8F0120A9
:102F480053E8002F002A03D143E80004002CF7D1EE
:102F5800BFF35B8F0AD1084C43F8381C636DFF211F
:102F68009847636B002098470020E4E76FF00F0054
:102F7800E1E700BF60060020388E0008F0B52C4D50
:102F8800BFF35B8F8BB00C46012755E8003F002B41
:102F980003D145E80072002AF7D1BFF35B8F43D114
:102FA800244E2068F3689847E37A4BB32346103DD4
:102FB80004F11007186859682A4603C20833BB424F
:102FC8001546F7D14FF47A63089300220120237B3A
:102FD8000793CDE90522CDE9032023890293A3793C
:102FE800019363790093F569237994F90A10A84746
:102FF800B36D607B9847FFF723FE00200BB0F0BD50
:103008000997227BB569CDE90732CDE90533CDE9CA
:1030180003330A2202922289CDE900323846A37985
:1030280062792179A847E3E76FF00F00E6E700BF70
:1030380060060020388E000838B5084611461A4642
:103048000B4BBFF35B8F012453E8005F002D04D1C5
:1030580043E8004CBCF1000FF6D1BFF35B8F04D1FD
:10306800044BDB6B9847002038BD6FF00F00FBE77F
:1030780060060020388E000838B5104BBFF35B8F10
:10308800002453E8002F43E800410029F9D1BFF399
:103098005B8F0B490B4D43F8341C0B4943F82C1C30
:1030A8000A4943F8301C2A6843F8400CA3F134005D
:1030B8009047EB6A9847204638BD00BF600600205D
:1030C8009D2C0008388E00089D2B000817720008F8
:1030D8001FB50F4CE36953B90E4A0F490093CDE968
:1030E80001321846022204F094F804B010BD002002
:1030F80098470A4B1B6E03B1984794F82030002B71
:10310800F3D0034804B0BDE8104000F051B900BF47
:1031180074060020DC9900086C8B0008388E0008C3
:1031280002460421014804F083B800BF7C880008E7
:10313800F0B54FF4B011476885B006462648FFF74A
:10314800B9FD20B16FF00404204605B0F0BD234856
:103158004FF4B011FFF7AEFD05460028F2D1204923
:10316800204804F0B4FF304600F02CF9044650B172
:103178001D4B1E490095CDE9015301222B462846D7
:1031880004F047F8E0E7386804F02CFF60B9184B02
:1031980002930023CDE9003314490122184604F0B4
:1031A80038F86FF01204CFE7F86818B104F01AFF86
:1031B8000028ECD03046FFF75FFF051EC4DA0D4B40
:1031C80002930023CDE9003308490122184604F090
:1031D80020F82C46B8E700BF548D00084C8D000835
:1031E800D9300008800600200B9A00086C8B000874
:1031F800299A00083E9A000802460521014804F071
:1032080017B800BF7C880008014B93F8200070476E
:103218007406002008B503461048042B80F82030B7
:1032280011D005D8BBB10020FFF7E6FF00200EE063
:10323800053B022BF7D80020FFF772FFBDE80840D6
:103248000120FFF7D9BF0020FFF7D6FF0120BDE816
:103258000840FFF765BF04F0BDF8E4E774060020F6
:10326800014BD861704700BF7406002010B5044CAC
:10327800204604F094F8012384F8203010BD00BFE4
:103288007406002010B5054C204600F089F800B9F6
:1032980010BD00210A2002F06FFDF5E7740600203A
:1032A80070B590B00D46DDE91461CDE90A3108AB7F
:1032B800CDE90802CDE90C5204930CAA0223044676
:1032C800CDE90E61CDE90623059304F0F9F812481B
:1032D800D5B9CEB9836811491D6804AA3346A847F1
:1032E80000280ADA0E4B029300230390CDE900333D
:1032F8000C490122184603F08CFF2378842B01D057
:10330800FFF7C0FF10B070BD836804491D6802480C
:1033180006AB04AAE3E700BFE0880008388D000880
:10332800619A00086C8B000870B5154D8AB0284664
:1033380000F03EF8C023ADF8143005AB0693022325
:103348000793012406AB089309940E480E49836835
:1033580008AA1E680023B04700280CDA0B4B02931A
:1033680000230390CDE9003309492246184603F0AB
:1033780050FF0AB070BDFFF785FF85F82040F8E7D9
:1033880074060020E0880008388D0008619A00085B
:103398006C8B0008014804F01BB800BF74060020BD
:1033A800024B5869C0F34000704700BF0004005842
:1033B800034B4FF48022C3F884213220FEF776BCF9
:1033C80000E100E0002208B511463220FEF79EFC1D
:1033D800054AD2F8903043F48053C2F89030322036
:1033E800FEF764FC002008BD00080058044A136872
:1033F8000BB1002159724361106004F01AB800BF84
:103408009806002037B5044601A803F0E2FE6CB127
:10341800174D2A68134673B9636823600123238113
:103428006AB9FFF7A9FB2046FFF7E0FF01A803F000
:10343800D9FE03B030BD9C42F8D05B69EBE7FFF7DB
:103448007BFB236818442B6820601A689042EAD3F3
:103458005A69596911B95C616161E7E71168884285
:1034680002D913465269F4E75C616261DEE700BF86
:1034780098060020F8B5FFF787FB1C4C0546FFF7B8
:103488007BFB2368A3B1471B1E462D1A716929B916
:103498005A692260DA68197242B9FEE70A68BA42C4
:1034A8008CBF521900220A607669EFE718699047C5
:1034B800002623682BB9206880B9F8BD18699047A1
:1034C800F7E71D68FFF738FB8542F4D223685A698D
:1034D8002260DA681E72002AF0D1FEE7437A002BD8
:1034E800EBD1BDE8F84003F0A4BF00BF9806002068
:1034F80037B5134D044601A803F06BFE2B686BB17A
:1035080064B10022A342227211D1597A5C6961B177
:103518005A7244B120462C6003F08BFF01A803F0D7
:1035280061FE03B030BDFFF711FB2C60F6E71A46C9
:103538005B69002BF2D09C42F9D163695361EDE7D6
:103548009806002007B5074B1B7840BAADF8040071
:103558002BB9022201A940F2BC6003F0D5FE03B0EA
:103568005DF804FB3108002007B5074B1B7840BA0B
:10357800ADF804002BB9022201A940F2BE6003F0A5
:10358800C3FE03B05DF804FB3108002010B50C4BF6
:103598001B7804469BB94FF4D76003F0EAFEC4F3E6
:1035A800002100F0FE0001434FF4D76003F0C0FE95
:1035B800E1B240F2B960BDE8104003F0B9BE10BDF9
:1035C8003108002013B5044603F043FE04F0070356
:1035D80014F004048DF8073008BF084B4FF00102BF
:1035E8000DF107014FF0840008BF1C7003F06CFE5A
:1035F8000020FFF70FFE02B010BD00BF2F0800200B
:1036080010B50446FFF732FE2046FFF729FEFFF704
:103618008BFE002003F073FF03F020FE03F02AFE68
:10362800034B00221A70BDE810400120FFF7F2BDDD
:103638002F080020134B984207B50BD94EF6E1131B
:10364800ADF80430022201A9982003F03DFE03B032
:103658005DF804FB0C4B984202D94DF6D733EFE7DF
:103668000A4B984202D94CF2C153E9E7084B9842F9
:1036780002D948F27513E3E7064B9842E2D946F6B9
:103688006B73DDE700E9A43580F8A9328044E52DA5
:10369800000B6B1B40FC541937B5104D2B780446B2
:1036A8001BB9FFF7C7FF01232B7043F6095241F6F8
:1036B8008463B4FBF2F102FB114403EB8433B3FBE4
:1036C800F2F3042203EB81331BBA0DEB02018620CF
:1036D800019303F0F9FD03B030BD00BF2F080020AF
:1036E80007B5064B8DF80700187001220DF1070188
:1036F8008A2003F0E9FD03B05DF804FB31080020DF
:10370800014B1878704700BF3108002013B5224AD2
:103718000446516810686B4603C3204B20781B7819
:10372800834201D0FFF7DCFF23781BB1012B2ED099
:1037380002B010BD62681A4BB3FBF2F31A0C8DF895
:1037480000201A0A8DF801208DF80230A268237B28
:103758008DF8033043F60951637BB2FBF1F08DF825
:10376800043001FB102241F6846303EB8233B3FB80
:10377800F1F303EB80331A0C5BBA8DF80520ADF832
:103788000630082269468B2003F09EFDD0E72369A6
:1037980000930422F6E700BFD08B00083108002010
:1037A8000000093D1FB52B4A0446D1689068127C79
:1037B80001AB03C31A70284B20781B78834201D0D1
:1037C800FFF78EFF23781BB1012B31D004B010BD59
:1037D800637AF12B20D14FF6FF70FFF7B3FE48F262
:1037E8000500FFF7C1FE02236288A188ADF8061024
:1037F80052BAE188ADF804208DF80B30227AA37A0A
:103808008DF80A20ADF808108DF80C30092201A9AE
:103818008C2003F059FDD9E7F22BE5D141F60F5082
:10382800FFF790FE41F22100FFF79EFE0623DBE73B
:10383800A3890A4A5BBAADF80430A37B13708DF8EC
:103848000630E37B8DF80730238AADF8083006226E
:10385800DDE700BFD08B00083108002030080020C9
:1038680037B505460C46022201A9132003F03AFD9C
:103878000A4B1B78012B0DD1094B1B78012B09D161
:1038880040F2027003F075FD9DF805302870237032
:1038980003B030BD9DF80400F6E700BF31080020F2
:1038A8003008002013B50322044601A9142003F0B0
:1038B80019FD184B1A7822704AB1012A17D0132221
:1038C8000021601C04F0E5FE0F2323700DE09DF835
:1038D800043023719DF80530A2605B425B10A37130
:1038E8009DF806305B425B10637102B010BD9DF815
:1038F80004305B425B1023739DF9053002339B1043
:1039080063739DF806305B425B10A373024B1B6820
:103918002361EAE7310800209C060020034B1B685E
:1039280013B15B6803B11847704700BFC407002094
:10393800034B1B6813B1DB6803B11847704700BF1E
:10394800C4070020014B01221A7070473408002078
:1039580008B5FFF759FC0438C0B2032896BF024BDC
:103968000020185C08BD00BF8B9A000838B50C46CB
:10397800002340F201211A460546084603F0E9FEF5
:10398800FFF7BEFE0C4B01280C480CBF83F8C7405C
:1039980083F8C040FFF706FF21462846002203F0BF
:1039A800D6FD074B0748196803F061FDBDE83840AC
:1039B8000448FFF727BD00BFD00600208807002075
:1039C800E0070020B806002038B50D461446FFF77A
:1039D80063FE2846074D03F050FC03F04CFE4FF4FD
:1039E8007A712846614303F042FD2846BDE8384015
:1039F800FFF708BDB806002073B5574D01A803F0BE
:103A0800E8FB2C78002301A82B7003F0EBFB002CBB
:103A180061D003F0B3FE044603F053FF01A803F09E
:103A2800D8FBFFF7B7FC012808BF287001A803F0EE
:103A3800D9FBE5070BD54948FFF75AFD0120FFF7E9
:103A4800E9FB474B1B6813B11B6803B19847A007F4
:103A580011D54448424EFFF74BFD14F0400F424B3E
:103A68003BD01B7813B90120FFF7D4FB336813B19F
:103A78001B6903B1984721060AD50120FFF7CAFB45
:103A8800374B1B6823B19B6913B1C4F300209847D7
:103A9800A2050FD5FFF7B8FB04284CD12F48FFF734
:103AA80027FD0120FFF7B6FB2D4B1B6813B15B68A0
:103AB80003B19847A3060ED52A48FFF719FD2A4BEC
:103AC8001B7813B90120FFF7A5FB254B1B6813B121
:103AD800DB6803B1984702B070BD1D7895B9012025
:103AE800FFF798FB294640F6021003F021FC40F648
:103AF800441003F03EFC40F00201C9B240F6441005
:103B080003F016FC194D1A48FF220DF1030103F0CA
:103B1800BFFE2846FFF7C6FE3368002BABD09E6871
:103B2800002EA8D095F90D3095F90C209DF80310BA
:103B38000F48B0479FE7FFF767FB0528BAD1094848
:103B4800FFF7D6FC0120FFF765FB054B1B68002B30
:103B5800B0D0DB68ACE700BF34080020B80600200E
:103B6800C4070020A006002034090020C807002050
:103B78003508002010B590B10A4B012219461C687F
:103B8800A04206D39C68A04203D201EBC201087987
:103B980010BD0132162A03F10803F0D1FEE71F20F9
:103BA800F6E700BF888D00080128094806D1094BAF
:103BB80080F8C7101970B830FFF7F4BD90F8BF301F
:103BC800012B04D1034B80F8C0101970F3E770473C
:103BD800D0060020AC01002000234FF6FF7110B57D
:103BE8001A460446084603F0B4FD34B10948214694
:103BF80003F03DFC0748FFF705FC074B1B782BB18A
:103C08006FF07F40BDE8104003F0AABC034B186872
:103C18008001F7E7A006002034090020DC07002017
:103C280000234FF6FF7110B51A460446084603F004
:103C380090FD34B10948214603F019FC0748FFF705
:103C4800E1FB074B1B782BB16FF07F40BDE81040BC
:103C580003F0D3BC034B18688001F7E7A0060020E7
:103C680034090020DC070020F0B5BDF814409DF8A9
:103C780018C09DF81CE09DF8205040B1012814D0D0
:103C88000122002398180138B0FBF2F0F0BD8CF047
:103C9800010CE30003EBCC0318330EEB450503EBF3
:103CA800C5034FF47A714B43ECE7501F012803F129
:103CB800040304D80C2C38BF0C24002706E0C1B933
:103CC800A2F10B07012F8CBF002701272801BCF1A7
:103CD800000F00EBCE000CBF14250025A0EB8200DE
:103CE800062A4FEA82062844A2F1020C08D8354673
:103CF8000BE00129E1D1A2F10C0047424741E5E779
:103D08000830002FF3D04FEA8C050028ACBF2E18DE
:103D18002E1C701E90FBF5F003FB0044094B062A8D
:103D28005A5C8CBF0C340E340A2A0AD8A30001331B
:103D38004FF47A7103FA0CF34B43034951F82220EC
:103D4800A0E7FFDE8F9A00085C8D00080D4B10B5C8
:103D580004461870587000F017F85CB134214FF41D
:103D6800E86003F0E5FA4421BDE8104040F24170F4
:103D780003F0DEBA14214FF4E86003F0D9FA2421E5
:103D8800F2E700BF3208002008B50120FFF7A8FCC1
:103D9800054B18785A78824204D05870BDE808401C
:103DA800FFF7D4BF08BD00BF32080020012808B5BE
:103DB80006D00020FFF794FC034B00225A7008BD80
:103DC800BDE80840FFF7E0BF320800202DE9F04FBA
:103DD80085B089469DF84C1000919DF85C109DF8BF
:103DE80044A0BDF84070694CDFF8A4B1BDF83C6050
:103DF8002170002918BF0027BAF1000F15469DF859
:103E0800482008BFFF228BF80020804620B10128F7
:103E180054D005B0BDE8F08F5E4C03F037FC0B239F
:103E28004FEA490084F8EC3084F8E080C4F8E450A4
:103E3800FFF7A0FE41F60403A4F8BC309BF800305D
:103E480084F8C030009B84F8ED00002B0CBF0123E0
:103E5800F22384F8C130F60001238AF0010A84F8BD
:103E6800C23084F8B880A4F8BA6084F8BE8084F8B8
:103E7800BFA003F034FD94F8E000003818BF01201B
:103E8800FFF794FF04F1E000FFF740FC04F1B800ED
:103E9800FFF788FC404A1068516802AB03C302A8C8
:103EA80003F024FB40F2FF10FFF770FB4FF4FA53C6
:103EB8007B43B3FBF5F3394A1360AAE70020354C7E
:103EC800019303F0E3FB3649019B11F8091084F8CC
:103ED800E080EAB284F8F020B9F1000F45D10B3D3B
:103EE800012D8CBF00250125053A012A02D80C2E88
:103EF80038BF0C2684F8F230012384F8B8309BF8D8
:103F0800003084F8C730009B84F8C8309DF85830DA
:103F180084F8C93084F8F11084F8F350A4F8C46028
:103F280084F8C6A003F0DBFC94F8E000003818BF62
:103F38000120FFF73BFF1B48FFF7E8FB1A48FFF794
:103F480031FCF8B203F0AEFB94F8C930012B40F213
:103F5800367014D103F00DFA00F0FB0140F2367010
:103F680003F0E6F94FF6FF73A5E7B9F1010F04D1A5
:103F7800A5F10C0045424541B6E70025B4E703F03A
:103F8800F8F940F00401C9B2E8E700BF340900209D
:103F9800AC010020D0060020E18B0008DC070020DF
:103FA8008F9A0008B0070020880700202DE9F74FF6
:103FB8000C9DBDF838709DF83C909DF840A088464F
:103FC8009346064648B101284DD040F6890003F0D3
:103FD800D0F940F00401C9B28DE0524C0B2284F8AC
:103FE800E000580084F8EC20C4F8E450FFF7C2FD64
:103FF80041F60403BAF1000FA4F8BC300CBF01234A
:10400800F22384F8C130FF00012389F0010984F804
:10401800C23084F8ED00C4F8E8B084F8B860A4F8B9
:10402800BA7084F8BE6084F8BF9003F058FC94F826
:10403800E000003818BF0120FFF7B8FE04F1E000E7
:10404800FFF764FB04F1B800FFF7ACFB364A1068D1
:1040580051686B4603C3684603F048FA40F2FF1004
:10406800FFF794FAB1E72F4C304984F8E000EAB240
:10407800C95C84F8F020002B4AD10B3D012D8CBF80
:1040880000250125053A012A02D80C2F38BF0C2734
:104098009DF8343084F8F230012384F8B830244B8A
:1040A80084F8F1101B7884F8C7309DF84C3084F8F8
:1040B800C93084F8F350A4F8C47084F8C69084F822
:1040C800C8A003F00CFC94F8E000003818BF0120E9
:1040D800FFF76CFE1748FFF719FB1748FFF762FB5D
:1040E80094F8F130062B7FF470AF40F6890003F0A6
:1040F80040F900F0FB0140F6890003F019F9404649
:1041080003F0BBF8149A0D4B1A6003B0BDE8F08FAA
:10411800012B04D1A5F10C035D425D41B2E70025F6
:10412800B0E700BFD0060020E18B00088F9A000896
:10413800AC010020B007002088070020E00700201D
:1041480008B5174B18601748FFF75AFA002003F014
:10415800D6F9012003F0D1FA0021084603F07EFBCE
:104168000421002003F037FB00234FF6FF711A46A5
:10417800084603F0EEFA40F6AC0003F02CFC40F6DB
:10418800890003F028FC0849084803F068F9084941
:10419800084803F064F9084B00221A7008BD00BFF4
:1041A800C40700204D39000825390008B80600204A
:1041B80039390008A0060020340800202DE9F0470E
:1041C8001E4F044600EBC1060025B44201D1002071
:1041D80014E02068C30600F01F0911D4656845F093
:1041E8002005C0F3481AC0F344200F2823D857F8F5
:1041F8002080B8F1000F0DD16FF01200BDE8F087F4
:10420800B9F1100F04D0B9F1110FEAD16568E8E7E8
:104218003025E6E7404603F0E5FE0028ECD04B46A3
:104228002A460AF00F01404602F0A9FF002804F1CF
:104238000804CADAE2E76FF01500DFE7A48E000889
:10424800012912D0022907D089B90068094BC01A80
:1042580018BF0120000370470068064B984214BF3E
:104268004FF440504FF400507047002070474FF40F
:10427800005070470080004070B51D46094B00266D
:1042880033F812203346FBF753FF090241EA106165
:104298006C08000220182A46334641F10001FBF75A
:1042A80047FF70BD949000082DE9F041026943680A
:1042B800064610681D680C46D9688368DB6888B0B4
:1042C80063B9314B02930023CDE900332F49012212
:1042D800184603F042FC08B0BDE8F08107AA9847E9
:1042E8000028EEDB2A4B9D423FD1079FDFF8A480D0
:1042F80000252346AAB238460021FFF7BDFFA0F5E6
:104308004070404510D901350C2DF2D10494336822
:104318000393214B02930023CDE900331B4901226B
:10432800184603F01AFCD6E7194EF36A23F00F0378
:104338002B43F362002CCED0184B33F81520002302
:1043480019463846FBF7F4FE090241EA1061630892
:104358000002C01822464FF0000341F10001FBF7AC
:10436800E7FEC0F31300F060B5E72B6823F40043C1
:104378002B60079B002CAED003EB5403B3FBF4F384
:104388009BB2EB60A7E700BFA39A00087C8B0008EC
:1043980000800040FFFC0F00D19A000894900008AC
:1043A8002DE9F84306460A794068336904685F686E
:1043B800012A0D464CD0931ED3F1000848EB0308A0
:1043C8004FEA88286979FFF73BFF95F80690B9F11D
:1043D800020F03463FD0B9F1040F40D0002A48D05D
:1043E800033A012A3DD94FF48050B3F5805F42D09B
:1043F800B3F5405F41D0002B0CBF01230323994242
:104408002FD1414603F067FB81452AD1EB7963B18F
:10441800012B34D11B4B9C4207D0A3F574439C421B
:1044280003D003F570539C421BD1236823F001038A
:1044380023602946304603F014FC236843F0010347
:10444800236095E8030087E803000020BDE8F883AF
:104458004FF4C068B6E73AB94FF08050C5E7002A74
:10446800C1D06FF08500F1E7033A012AF9D900209D
:10447800BBE71046B9E70023C1E70223BFE7032BD8
:10448800C8D0EEE700380140F0B504694568064633
:104498005C48206087B003F0A5FD034650B95A4A2E
:1044A8005A490093CDE90132012203F056FB6FF01F
:1044B80012040DE02068E96883681B689847044681
:1044C80048B9286A05AA002103F0BAFA041E0FDACF
:1044D800204607B0F0BD4E4B02930023CDE90033D0
:1044E8004A490122184603F038FB002CF0DBE8E7C4
:1044F800059B002219791868FFF760FE041EE7DBA8
:10450800756833692C685F68236823F001032360AA
:10451800686803F067FD034608B93E4AC0E7D5E975
:1045280001018368DB6803B1984754E8003F43F012
:104538000C0344E80032002AF7D13946304603F02C
:1045480090FB2B7D1BB1A36843F00803A3606B7D30
:104558001BB1636843F400436360AB7D1BB16368C0
:1045680043F480336360EB7D1BB1636843F400332D
:1045780063602B7E002B33D0274B9C4216D0A3F5CB
:1045880074439C4212D003F570539C420ED033689A
:104598000393224B02930023CDE900331B490122E8
:1045A800184603F0DAFA6FF0150491E773681A6891
:1045B800936843F48043936023686A7E23F078739A
:1045C80043EA425323602368AA7E23F4F81343EA9C
:1045D80002432360EB7E1BB1A36843F40043A3604E
:1045E8002B7F1BB1236843F000532360236843F0FB
:1045F80001032360E3699A02FCD5E3695B02FCD5F9
:10460800002465E72C880008E89A00087C8B0008DD
:10461800079B0008279B000800380140429B0008C0
:104628002DE9F04105460669476888B0424C2046A6
:1046380003F0D8FC034668B9404A41490090CDE9E7
:104648000102012203F077FC6FF01204204608B043
:10465800BDE8F081A36839691B6820469847041EA5
:104668000ADA384B02930023CDE90033344901229A
:10467800184603F060FCE9E76B681D7AD5B97868DD
:1046880007AA294603F0DCF9041E07DB079B2A4624
:1046980019791868FFF792FD041E0BDA2A4B02936A
:1046A8000023CDE90033264903940122184603F07C
:1046B80042FCCBE7B5680127D6E9023203EBC20317
:1046C8009D4204D3304603F05AFC0024BEE7286814
:1046D80003F088FC034668B92A7904922A681849C5
:1046E80012680392194A0090CDE90102012203F0F1
:1046F80022FCA9E728682979EB88D0F810C0D0F8FF
:104708000880DCF80040DA0754BF43F4B01383F4A0
:10471800D01323F4801207FA01FEDB074CBF44EAEA
:104728000E0424EA0E04CCF80040D8F8003098476C
:10473800041E8BDB0835BFE72C880008E89A0008C0
:104748005C8B00087F9B00089A9B0008B89B0008B8
:104758002DE9F04FD0F804900469D9F800B093B06F
:1047680080460E461F46079202B99FB3B3889D0440
:1047780034D44FF0FF324FF0FF3304F1100000F053
:1047880099FE6660DFF804C1D8F810A0D8F804E0F4
:10479800BCE80F000AAD0FC59CE80F0085E80F00C4
:1047A800DAF80020B388DEF800509642C3F34511CA
:1047B80000F0BF80082918D0102916D06FF085079F
:1047C80023689B8813F4005304D1636004F110003C
:1047D80000F04CFE384613B0BDE8F08FA369002BFB
:1047E800C7D163689E42C4D1CCE713F4004F6B680D
:1047F800274814BF43F0100323F010036B6083684D
:10480800DEF81010DB6863B9224B02930023CDE970
:10481800003321490122184603F08DFB6FF004078D
:10482800CEE709AA98470028EEDB099A31680123E8
:1048380022FA03F0884214D90133092BF8D1130A5C
:104848000593164B029352080023CDE90312CDE9D4
:10485800003311490122184603F06DFB6FF015076C
:10486800AEE72A6812A922F040022A6001EB83030E
:104878002A6853F8243C22F0380213432B60B3888B
:1048880098070DD42B6823F002030CE0948B0008E2
:104898002C880008DC9B00085C8B0008089C00083A
:1048A8002B6843F002032B60B38813F0040F2B68C6
:1048B80014BF43F0010323F001032B602B6823F49A
:1048C80044432B60B38813F0100F2B6814BF43F0D8
:1048D800800323F080032B602B6823F400532B60A4
:1048E800B368002B00F0C9802B6843F400732B6079
:1048F8006B6823F004036B60B38813F0010F2B6817
:1049080014BF23F4827343F482732B60B388C3F318
:104918004513082B6B6806BF23F4706343F4E06308
:1049280043F470636B606B6843F480536B60CAF840
:104938000060B3880799C3F34513082B0CBF012304
:1049480002233A46204603F03DFADBF80830D9073F
:1049580000F1A280DBF8003043F04003CBF80030D0
:10496800D8F810502868002840F09980D8F804300A
:104978001B7A33B19F4AD2F8903023F40043C2F82F
:1049880090302368D9F800509B88DA0700F1A4809A
:1049980099F81430002B00F08F80AB68DF0703D53F
:1049A8002146284603F085FAAB689E0703D52146C1
:1049B800284603F036FAD9F80050AB6813F4B873F8
:1049C80000F0208104938C4B03938C4B02930023BB
:1049D800CDE9003318468A49012203F0ACFAAB68E6
:1049E8005E0605D5EB680993099BAB680993099B9B
:1049F8006FF00407D8F80430D8F810901D68AB6839
:104A0800D80700F108812B6803F48273B3F5827F1D
:104A18001FD1AB681906FCD4D9F8003073B19A6875
:104A280062B1998811F4805608D1186903F0CBFA5D
:104A3800D9F800003146083003F08DFAD8F8043070
:104A48001B7A33B16B4AD2F8903043F40043C2F872
:104A58009030AB689A0606D5AB680A930A9B2B6818
:104A680023F040032B60D9F800309B88DB045EBF3D
:104A78002B6823F040032B60A2E6B38813F0010FE4
:104A88002B6823F400737FF432AF43F480232B6048
:104A98006B6843F004032EE79BF80C3055E78368F6
:104AA800002B3FF463AF0121083003F054FA2B6860
:104AB800186903F088FA59E7AB689807FCD52846C7
:104AC800214603F0AEF9D9F800008368D907FCD570
:104AD800214603F0EEF96EE7AA68920767D5A26D42
:104AE800002A64D0C3F34513082B626D4AD11378AA
:104AF8002B73A36D9BB1013BA365002B3CD1636C69
:104B080008336364A36C013BA364012304F15802D6
:104B180004F1480104F1440003F03EF96065AB6814
:104B2800DF077FF548AFE36D002B3FF444AF226EFB
:104B3800002A3FF440AF22689288C2F34512082A3F
:104B480041D12A7B1A70236E002B3FF434AF013B0E
:104B58002366002B30D1E36C0833E364236D013BFB
:104B68002365012304F1600204F1500104F14C00B3
:104B780003F012F9E0651EE7636D002BCFD0013317
:104B88006365CCE71388AB81A36D002BC7D0013BCD
:104B9800A3653BB9636C08336364A36C013BA364EE
:104BA8000223B3E7636D002BB9D00233E8E76B68E3
:104BB80023F080036B60B2E7E36D002B3FF4FBAE9C
:104BC8000133E365F7E6EA681A80236E002B3FF4A9
:104BD800F2AE013B23663BB9E36C0833E364236D13
:104BE800013B23650223BDE7E36D002B3FF4E3AEF1
:104BF8000233E6E700040058429C0008379C00088E
:104C08005C8B0008A36D002B7FF4BBAE276E002FD2
:104C18007FF4B7AEEEE62B7BF1E600BF10B54FF0A0
:104C2800E0230F499C691A6908689B690D4902F4D9
:104C3800803234B993B903464AB90A681044C01A95
:104C480010BD002B08BF03460AB9A342F5D90A686C
:104C580002440A604FF0E0221269EEE70446F3E7E7
:104C6800F0070020E40700200A4B102283F82320D5
:104C7800094B4FF496521A60084B002018604FF009
:104C8800E02341F2BF225A6198611A6942F0070293
:104C98001A61704700ED00E0F0070020E4070020EB
:104CA80008B5FFF7BBFF0C4B0C4A1868116808449D
:104CB800106000221A600A4A13684FF49651C01A0D
:104CC800B0FBF1F001FB0033136001F0EBF9BDE834
:104CD8000840FCF783BC00BFE4070020EC07002075
:104CE800E80700202DE9F041334E91B1421C0AD16A
:104CF8004FF0E022136923F0010313614FF07F4363
:104D08003360BDE8F0813468012807DC4FF0000803
:104D18000BE0431C3468F7D140F6A65040F6A75381
:104D28009842A8BF184600F1FF38EFF31185102309
:104D380083F31288BFF36F8FFFF770FF4FF0E02304
:104D4800DFF878C09F69DCF8003018441C4B00225B
:104D58001A601C4B1A68831A2AD44FF4965E0EFB0D
:104D6800083303F595531F33B3FBFEF1131A0EFBFB
:104D78000133B3F5806F144A38BF4FF48063934210
:104D880028BF13464FF0E022336091698F42A7EBAA
:104D9800010703F1FF3338BF3F195361384400233B
:104DA8009361CCF8000085F31188BFF36F8FA8E7F3
:104DB8004FF48063E6E700BFF0070020EC0700200F
:104DC800E4070020E807002080E8FF0038B5EFF38B
:104DD8001185102383F31288BFF36F8F084B1C686B
:104DE800084B1B68E41AFFF719FF85F31188BFF316
:104DF8006F8F4FF496532044B0FBF3F038BD00BFDB
:104E0800EC070020E807002038B5EFF311851023E0
:104E180083F31288BFF36F8F044B1C68FFF7FEFE05
:104E280085F31188BFF36F8F204438BDEC0700204D
:104E380010B54FF0B0439A68D96812F00C0205D04B
:104E48000C2A4AD101F00303012B53D14FF0B04192
:104E58002C480B6813F0080306D00B6813F00803FE
:104E680037D1D1F8941007E00C68240756BFD1F861
:104E780094300968C3F3032350F82330002A0CBF89
:104E8800184600204FF0B0418A6802F00C020C2A44
:104E98001ED1CA6802F00302022A31D0032A06D1C1
:104EA8000B68194A13F4801F184B08BF13464FF0BC
:104EB800B042D068D168D268C0F306205843C1F325
:104EC80002130133B0FBF3F0530F0133B0FBF3F0DF
:104ED80010BD0B68C3F30313CEE7042A07D0082AD2
:104EE80008D11B6813F4801307D10748CAE708489C
:104EF8000023C7E700231846C4E704480023C1E796
:104F0800034BD4E7E88F000800127A0000093D003F
:104F18000024F4001F4A034607CA84B00DF1100CA0
:104F28000CE9070018463BB31B4B1B6803F4C0632E
:104F3800B3F5007F22D1194B984229D8184B9842D3
:104F480024D9184B98428CBF02200120164904AB83
:104F580003EB80000B6850F80C2C23F00703134375
:104F68000B60086800F0070082421CBF086800F068
:104F78000700831A5842584104B070470B4B9842B7
:104F880006D80B4B984201D90A4BDBE70020DDE736
:104F98000020F1E7B48B000800040058006CDC0224
:104FA80080A8120100512502004000580024F40096
:104FB800808D5B00001BB7001FB50446FBF7FAFFA6
:104FC800064B029300231846CDE900330449012219
:104FD80003F013F8204603F020F800BF7B9C00087C
:104FE8004C8B00082DE9F041054686B00E46EFF3DC
:104FF8001188102383F31288BFF36F8F042898BF9A
:10500800234B244A98BF53F82030976888BF224B17
:10501800127C224903900024CDE90432204B0293EC
:10502800CDE9004423460122204602F0E6FF6EB196
:10503800F369C3F308034BB11A4B18490094CDE93F
:10504800014301222346204602F0D7FF2FB13846FC
:1050580003F072F808B1037803B91348134B0293AD
:105068000023CDE90370CDE90033184601220B492E
:1050780002F0C3FF31462846FFF79EFF88F31188E8
:10508800BFF36F8F384606B0BDE8F041FCF792BD1C
:1050980068900008F40700208A9C00084C8B0008E0
:1050A800A09C0008C89C0008989C0008E99C00087F
:1050B80038B5094B53F82040013053F82050A54229
:1050C80000D838BD636823B1204602F0AEFF08342B
:1050D800F5E723689847FAE77C90000870B52B4BF2
:1050E8002B4C2C4D012286B003201A70FFF7E0FFED
:1050F80001F082F902F0B5FF0420FFF7D9FF264638
:10510800AE4204F1300410D300F078FD204C224E5A
:10511800AC4226D300F086FDFBF7A6F91F4A137BA5
:1051280023F00103137306B070BD54F80C3C0593CB
:1051380054F8103C049354F8143C039354F8183C66
:10514800029354F81C3C019354F8203C009354E912
:105158000A2354E90C0100F013FB54F8303C5E6557
:10516800CDE7D4E90A23B3F1FF3F08BFB2F1FF3F0F
:1051780005D052EA0301206803D102F0DFFF303482
:10518800C6E73146183000F013FFF8E7350900206C
:105198000C8B00080C8B0008838200082003002079
:1051A80008B50348034A0021121A02F056FF08BD49
:1051B800200200203809002070B5002386B00122A3
:1051C800CDE90423134E144D01930F22CDE9023289
:1051D8001249142303FB005506EBC01604464FF48E
:1051E800A07000FB04110E4B00954FF480723046FE
:1051F80000F0C6FA737B0B4AEE6023F00403737366
:105208004FF4046304FB033313442C746B6006B03F
:1052180070BD00BFA0020020F4070020C0190020C4
:105228006D80000880110020BFB50020FFF740FF07
:105238002C4B83F308882C4D2C4E6B692C4F43F470
:1052480000736B610024F02385F82230EC772C760C
:105258006C76AC7685F820406B6A43F4E0236B6289
:10526800FCF780FCFCF7D4FD4FF0FF33AB62EB6238
:10527800FCF7B4FEFCF7F0FDFBF788FE1D4BB360AE
:1052880040F201129A81C3E919441C6702F0A9FE91
:105298000120FFF70DFF0220174DFFF709FF00F06F
:1052A800E1FC164B75610593012315490094CDE97E
:1052B80003434FF480623B46CDE90144284600F0A1
:1052C8005FFA6A7B064622F0040228466A7302F0F7
:1052D8007AFF2046FFF770FF3A4631462846FCF72A
:1052E80075FD00BFC019002000ED00E0F4070020A4
:1052F800E5500008A003002020030020DB910008EF
:10530800001B00202DE9F341044617461E46EFF323
:105318001188102383F31288BFF36F8FC368334A51
:105328007BB180689168884219D057EA060318D182
:1053380088F31188BFF36F8F6FF00F0002B0BDE8DC
:10534800F081916891F90E1021610133E36093684F
:10535800A36088F31188BFF36F8F0020EEE72169FF
:10536800F2E791F90E1090F90E309942A8BF19464C
:105378006FF07E029142B8BF11468B422DDD02F0DC
:105388007CFE0546CDE9007619482246414600F0E4
:1053980081FB0028E1D0EFF31186102383F31288F4
:1053A800BFF36F8FA068D0B1236821699C420AD0EF
:1053B8004BB193F90E309942A8BF19466FF07E039E
:1053C8009942B8BF194602F058FE40B10848314624
:1053D80000F0D0FB6FF00A00B0E70025D2E7002DFF
:1053E800F4D186F31188BFF36F8FF3E7F407002039
:1053F8003609002038B58368044663B3194A9268B1
:1054080093422BD1C368012B03D9013BC360002011
:1054180038BDEFF31185102383F31288BFF36F8F24
:105428000169806802F029FE204602F040FFA06072
:1054380058B190F90E2022610022C26702F0C3FE23
:105448000948294600F096FBE1E7E06085F31188FA
:10545800BFF36F8FDBE76FF01500D9E74FF0FF3030
:10546800D6E700BFF40700203609002038B5044607
:10547800EFF31185102383F31288BFF36F8F02F0C7
:1054880016FF48B10022C26702F09DFE294608486F
:10549800BDE8384000F06EBBD4E902329A4218BF2A
:1054A8000133A360022104F1100003F0CAF8EDE70C
:1054B8003609002013B5EFF31181102484F3128804
:1054C800BFF36F8F846844B1013C846081F3118815
:1054D800BFF36F8F002002B010BD52EA030406D15B
:1054E80081F31188BFF36F8F6FF00F00F3E7CDE9F9
:1054F80000230246014800F0CDFAECE73609002007
:105508002DE9F043DFF8348185B005464FF0FF36CA
:105518004FF0FF37EFF31189102383F31288BFF39D
:105528006F8FD5F880408CB9022105F1980002F000
:10553800BCFD002860D10023CDE90067029305F186
:10554800880249463E4800F03BFCE3E7D5F8842052
:105558002368C5F88030944208BFC5F88430D5F870
:10556800983043F00203C5F89830E36823F0040349
:1055780043F00103E360636889F31188BFF36F8F19
:1055880020469847EFF31189102383F31288BFF35D
:105598006F8FE368D90623F0010237D4E260E3682D
:1055A8009A071AD5D8F8000023F00203E360A0B1E7
:1055B8000268002188B143689C4237D1036869BBFF
:1055C800D8F80420C8F80030824201D1C8F8043065
:1055D800002340F8083BFFF749FFD5F8983023F03F
:1055E8000203C5F8983089F31188BFF36F8FDB0584
:1055F80090D400F03FFB8DE705F1900400220121D3
:10560800204602F0A8FE0028F8D194E723F0110301
:10561800E36004F11000FFF729FFC0E70B60D8F83A
:105628000430834208BFC8F80410D1E722B11368D8
:10563800014610461A46BDE71346F9E7140800204C
:1056480036090020F8B5C3689A0704460F46C3F325
:1056580040062CD45B071AD40B680BB983680B601F
:10566800E368DD0744BFA3683B603D684CBF022682
:105678000126002D3AD01F4B9B68AB420AD0D5F8C3
:105688009830D807C3F3800214D46FF012060023B1
:105698003B6025E002F047FDD5F898300028F0D1AE
:1056A800D907C3F3C002F0D552B15B0708D46FF035
:1056B8000F06ECE7002AFAD1C3F3C003002BF6D19A
:1056C80000232360D5F8843063B9C5E9204428460F
:1056D80002F0F6FCE36843F00403E3603B68A36070
:1056E8003046F8BD1C60C5F88440F0E76FF0150639
:1056F800CDE700BFF40700200146014802F003BDD2
:1057080040040020F0B589B004460020C4E9200018
:105718000E9D04F18800C4E9220004F19000C4E958
:1057280024004DB32879002840F2011008BF012059
:10573800C4F8980000204FF0FF364FF0FF37CDE94E
:105748000330CDE90100CDE906670C4B00942046F3
:1057580000F062F855B1296811B1204602F0E9FC61
:105768006B791BB1237B43F001032373204609B0F7
:10577800BDE8F04002F0E2BC0120D9E70955000875
:105788002DE9F043073285B022F007020E461F4686
:105798001099017300F158037F32C0E916330446AB
:1057A800002322F03F020421836041733F2A0F98AF
:1057B800A073C4E90633E37306F14009A2F1400877
:1057C80005D883F31188BFF36F8F084602DFB51839
:1057D80029462046FBF7E2FE07300E9B20F0070023
:1057E800E066C4E9199802930D9B01932D1A0C9B4E
:1057F80000932A463B4631462046FCF7B5FA00237B
:105808006365044B9B6803B11B6F2367284605B08B
:10581800BDE8F083F4070020F0B587B000250595B2
:10582800109D04950F9D03950E9D0295DDE9127656
:105838000D9D01950C9D00950446FFF7A1FFB6F15B
:10584800FF3F08BFB7F1FF3F05D056EA070305D170
:10585800204600F0A1F9204607B0F0BD03493A46BA
:10586800334604F1180000F0A3FBF4E78382000834
:1058780038B50D4D2B4653F8184F9C4200D004B94B
:10588800EC68AB6838B95A7BD20604D1A26912B960
:10589800DA897F2A05D89C4202D0204600F0D0FA47
:1058A80023466B6138BD00BFF407002008B590F9A6
:1058B8000D20437B002A014604DA03F07F0343737B
:1058C80002F03EFC044B9868431A58425841BDE820
:1058D8000840FFF7CDBF00BFF407002070B490F96F
:1058E8000D30427B002B29DBD30627D183692BBBE4
:1058F800134962F07F0242730A4652F8184F9442E5
:1059080018BF2346CC6923B9C0E900242060C861C8
:105918000CE090F90E5093F90E60B5420AD0AE42F1
:1059280008DD5A68C0E900321060586070BC002079
:10593800FFF79EBF9C42E7D01B68E4E770BC704746
:10594800F40700202DE9F041002A427B0E460CBFE7
:1059580010210821114204460FD141EA0203D2095D
:1059680018D1437308291BD00120FFF781FFBFF32B
:105978005F8F637B23F060036373274B9B68A342AD
:1059880043D1EFF30583002B3FD13046BDE8F0410A
:10599800FCF726B903F07F03437302F0D1FBE1E77C
:1059A800A36813B1204602F0D3FB04F1180002F0FB
:1059B800F4FCA56D04F15807AF4211D04FF0000870
:1059C80075B1284602F0C4FB05F1180002F0E5FCA9
:1059D800C5F87C802846FFF781FFA56DAF42EFD15F
:1059E8000D4DAB689C42BFD1EFF30583002BBBD0B4
:1059F8000120FFF73DFF094BAB6040F201129A818D
:105A08000022C3E919221A67B1E786F31188BFF3A8
:105A18006F8FBDE8F08100BFF4070020A0030020CD
:105A280070B590F90D20437B002A014604DA03F093
:105A38007F03437302F084FB4B7B154A63F07F03BB
:105A480010464B7350F8183FD469834208BF0023AF
:105A580023B9C1E900042160D1610CE091F90E502D
:105A680093F90E60B5420ED0AE420CDD5868C1E91C
:105A78000030016059609068431A5842BDE8704090
:105A88005841FFF7F5BE9C42E3D01B68E0E700BF32
:105A9800F4070020F8B5124B0C461146114A9868D5
:105AA8001060DDE90676EFF31182102282F3128886
:105AB800BFF36F8F9D68284602F054FBB6F1FF3F95
:105AC80008BFB7F1FF3F06D007493A46334605F10C
